{
  "contractName": "HoBINFT",
  "abi": [
    {
      "inputs": [],
      "stateMutability": "nonpayable",
      "type": "constructor"
    },
    {
      "anonymous": false,
      "inputs": [
        {
          "indexed": true,
          "internalType": "address",
          "name": "owner",
          "type": "address"
        },
        {
          "indexed": true,
          "internalType": "address",
          "name": "approved",
          "type": "address"
        },
        {
          "indexed": true,
          "internalType": "uint256",
          "name": "tokenId",
          "type": "uint256"
        }
      ],
      "name": "Approval",
      "type": "event"
    },
    {
      "anonymous": false,
      "inputs": [
        {
          "indexed": true,
          "internalType": "address",
          "name": "owner",
          "type": "address"
        },
        {
          "indexed": true,
          "internalType": "address",
          "name": "operator",
          "type": "address"
        },
        {
          "indexed": false,
          "internalType": "bool",
          "name": "approved",
          "type": "bool"
        }
      ],
      "name": "ApprovalForAll",
      "type": "event"
    },
    {
      "anonymous": false,
      "inputs": [
        {
          "indexed": true,
          "internalType": "address",
          "name": "from",
          "type": "address"
        },
        {
          "indexed": true,
          "internalType": "address",
          "name": "to",
          "type": "address"
        },
        {
          "indexed": true,
          "internalType": "uint256",
          "name": "tokenId",
          "type": "uint256"
        }
      ],
      "name": "Transfer",
      "type": "event"
    },
    {
      "inputs": [
        {
          "internalType": "address",
          "name": "to",
          "type": "address"
        },
        {
          "internalType": "uint256",
          "name": "tokenId",
          "type": "uint256"
        }
      ],
      "name": "approve",
      "outputs": [],
      "stateMutability": "nonpayable",
      "type": "function"
    },
    {
      "inputs": [
        {
          "internalType": "address",
          "name": "owner",
          "type": "address"
        }
      ],
      "name": "balanceOf",
      "outputs": [
        {
          "internalType": "uint256",
          "name": "",
          "type": "uint256"
        }
      ],
      "stateMutability": "view",
      "type": "function",
      "constant": true
    },
    {
      "inputs": [
        {
          "internalType": "uint256",
          "name": "tokenId",
          "type": "uint256"
        }
      ],
      "name": "getApproved",
      "outputs": [
        {
          "internalType": "address",
          "name": "",
          "type": "address"
        }
      ],
      "stateMutability": "view",
      "type": "function",
      "constant": true
    },
    {
      "inputs": [
        {
          "internalType": "address",
          "name": "owner",
          "type": "address"
        },
        {
          "internalType": "address",
          "name": "operator",
          "type": "address"
        }
      ],
      "name": "isApprovedForAll",
      "outputs": [
        {
          "internalType": "bool",
          "name": "",
          "type": "bool"
        }
      ],
      "stateMutability": "view",
      "type": "function",
      "constant": true
    },
    {
      "inputs": [],
      "name": "name",
      "outputs": [
        {
          "internalType": "string",
          "name": "",
          "type": "string"
        }
      ],
      "stateMutability": "view",
      "type": "function",
      "constant": true
    },
    {
      "inputs": [
        {
          "internalType": "uint256",
          "name": "tokenId",
          "type": "uint256"
        }
      ],
      "name": "ownerOf",
      "outputs": [
        {
          "internalType": "address",
          "name": "",
          "type": "address"
        }
      ],
      "stateMutability": "view",
      "type": "function",
      "constant": true
    },
    {
      "inputs": [
        {
          "internalType": "address",
          "name": "from",
          "type": "address"
        },
        {
          "internalType": "address",
          "name": "to",
          "type": "address"
        },
        {
          "internalType": "uint256",
          "name": "tokenId",
          "type": "uint256"
        }
      ],
      "name": "safeTransferFrom",
      "outputs": [],
      "stateMutability": "nonpayable",
      "type": "function"
    },
    {
      "inputs": [
        {
          "internalType": "address",
          "name": "from",
          "type": "address"
        },
        {
          "internalType": "address",
          "name": "to",
          "type": "address"
        },
        {
          "internalType": "uint256",
          "name": "tokenId",
          "type": "uint256"
        },
        {
          "internalType": "bytes",
          "name": "data",
          "type": "bytes"
        }
      ],
      "name": "safeTransferFrom",
      "outputs": [],
      "stateMutability": "nonpayable",
      "type": "function"
    },
    {
      "inputs": [
        {
          "internalType": "address",
          "name": "operator",
          "type": "address"
        },
        {
          "internalType": "bool",
          "name": "approved",
          "type": "bool"
        }
      ],
      "name": "setApprovalForAll",
      "outputs": [],
      "stateMutability": "nonpayable",
      "type": "function"
    },
    {
      "inputs": [
        {
          "internalType": "bytes4",
          "name": "interfaceId",
          "type": "bytes4"
        }
      ],
      "name": "supportsInterface",
      "outputs": [
        {
          "internalType": "bool",
          "name": "",
          "type": "bool"
        }
      ],
      "stateMutability": "view",
      "type": "function",
      "constant": true
    },
    {
      "inputs": [],
      "name": "symbol",
      "outputs": [
        {
          "internalType": "string",
          "name": "",
          "type": "string"
        }
      ],
      "stateMutability": "view",
      "type": "function",
      "constant": true
    },
    {
      "inputs": [
        {
          "internalType": "address",
          "name": "from",
          "type": "address"
        },
        {
          "internalType": "address",
          "name": "to",
          "type": "address"
        },
        {
          "internalType": "uint256",
          "name": "tokenId",
          "type": "uint256"
        }
      ],
      "name": "transferFrom",
      "outputs": [],
      "stateMutability": "nonpayable",
      "type": "function"
    },
    {
      "inputs": [
        {
          "internalType": "address",
          "name": "nftMarketplace",
          "type": "address"
        },
        {
          "internalType": "uint256",
          "name": "tokenId",
          "type": "uint256"
        }
      ],
      "name": "mintNFT",
      "outputs": [],
      "stateMutability": "nonpayable",
      "type": "function"
    },
    {
      "inputs": [
        {
          "internalType": "uint256",
          "name": "tokenId",
          "type": "uint256"
        }
      ],
      "name": "tokenURI",
      "outputs": [
        {
          "internalType": "string",
          "name": "",
          "type": "string"
        }
      ],
      "stateMutability": "view",
      "type": "function",
      "constant": true
    }
  ],
  "bytecode": "0x60806040523480156200001157600080fd5b506040518060400160405280600781526020017f486f42694e4654000000000000000000000000000000000000000000000000008152506040518060400160405280600381526020017f484254000000000000000000000000000000000000000000000000000000000081525081600090816200008f919062000324565b508060019081620000a1919062000324565b5050506200040b565b600081519050919050565b7f4e487b7100000000000000000000000000000000000000000000000000000000600052604160045260246000fd5b7f4e487b7100000000000000000000000000000000000000000000000000000000600052602260045260246000fd5b600060028204905060018216806200012c57607f821691505b602082108103620001425762000141620000e4565b5b50919050565b60008190508160005260206000209050919050565b60006020601f8301049050919050565b600082821b905092915050565b600060088302620001ac7fffffffffffffffffffffffffffffffffffffffffffffffffffffffffffffffff826200016d565b620001b886836200016d565b95508019841693508086168417925050509392505050565b6000819050919050565b6000819050919050565b600062000205620001ff620001f984620001d0565b620001da565b620001d0565b9050919050565b6000819050919050565b6200022183620001e4565b6200023962000230826200020c565b8484546200017a565b825550505050565b600090565b6200025062000241565b6200025d81848462000216565b505050565b5b8181101562000285576200027960008262000246565b60018101905062000263565b5050565b601f821115620002d4576200029e8162000148565b620002a9846200015d565b81016020851015620002b9578190505b620002d1620002c8856200015d565b83018262000262565b50505b505050565b600082821c905092915050565b6000620002f960001984600802620002d9565b1980831691505092915050565b6000620003148383620002e6565b9150826002028217905092915050565b6200032f82620000aa565b67ffffffffffffffff8111156200034b576200034a620000b5565b5b62000357825462000113565b6200036482828562000289565b600060209050601f8311600181146200039c576000841562000387578287015190505b62000393858262000306565b86555062000403565b601f198416620003ac8662000148565b60005b82811015620003d657848901518255600182019150602085019450602081019050620003af565b86831015620003f65784890151620003f2601f891682620002e6565b8355505b6001600288020188555050505b505050505050565b612ba2806200041b6000396000f3fe608060405234801561001057600080fd5b50600436106100ea5760003560e01c80636352211e1161008c578063a22cb46511610066578063a22cb4651461025b578063b88d4fde14610277578063c87b56dd14610293578063e985e9c5146102c3576100ea565b80636352211e146101dd57806370a082311461020d57806395d89b411461023d576100ea565b8063095ea7b3116100c8578063095ea7b31461016d57806323b872dd146101895780633c168eab146101a557806342842e0e146101c1576100ea565b806301ffc9a7146100ef57806306fdde031461011f578063081812fc1461013d575b600080fd5b61010960048036038101906101049190611aa6565b6102f3565b6040516101169190611aee565b60405180910390f35b6101276103d5565b6040516101349190611b99565b60405180910390f35b61015760048036038101906101529190611bf1565b610467565b6040516101649190611c5f565b60405180910390f35b61018760048036038101906101829190611ca6565b6104ad565b005b6101a3600480360381019061019e9190611ce6565b6105c4565b005b6101bf60048036038101906101ba9190611ca6565b610624565b005b6101db60048036038101906101d69190611ce6565b61064f565b005b6101f760048036038101906101f29190611bf1565b61066f565b6040516102049190611c5f565b60405180910390f35b61022760048036038101906102229190611d39565b6106f5565b6040516102349190611d75565b60405180910390f35b6102456107ac565b6040516102529190611b99565b60405180910390f35b61027560048036038101906102709190611dbc565b61083e565b005b610291600480360381019061028c9190611f31565b610854565b005b6102ad60048036038101906102a89190611bf1565b6108b6565b6040516102ba9190611b99565b60405180910390f35b6102dd60048036038101906102d89190611fb4565b6108c8565b6040516102ea9190611aee565b60405180910390f35b60007f80ac58cd000000000000000000000000000000000000000000000000000000007bffffffffffffffffffffffffffffffffffffffffffffffffffffffff1916827bffffffffffffffffffffffffffffffffffffffffffffffffffffffff191614806103be57507f5b5e139f000000000000000000000000000000000000000000000000000000007bffffffffffffffffffffffffffffffffffffffffffffffffffffffff1916827bffffffffffffffffffffffffffffffffffffffffffffffffffffffff1916145b806103ce57506103cd8261095c565b5b9050919050565b6060600080546103e490612023565b80601f016020809104026020016040519081016040528092919081815260200182805461041090612023565b801561045d5780601f106104325761010080835404028352916020019161045d565b820191906000526020600020905b81548152906001019060200180831161044057829003601f168201915b5050505050905090565b6000610472826109c6565b6004600083815260200190815260200160002060009054906101000a900473ffffffffffffffffffffffffffffffffffffffff169050919050565b60006104b88261066f565b90508073ffffffffffffffffffffffffffffffffffffffff168373ffffffffffffffffffffffffffffffffffffffff1603610528576040517f08c379a000000000000000000000000000000000000000000000000000000000815260040161051f906120c6565b60405180910390fd5b8073ffffffffffffffffffffffffffffffffffffffff16610547610a11565b73ffffffffffffffffffffffffffffffffffffffff161480610576575061057581610570610a11565b6108c8565b5b6105b5576040517f08c379a00000000000000000000000000000000000000000000000000000000081526004016105ac90612158565b60405180910390fd5b6105bf8383610a19565b505050565b6105d56105cf610a11565b82610ad2565b610614576040517f08c379a000000000000000000000000000000000000000000000000000000000815260040161060b906121ea565b60405180910390fd5b61061f838383610b67565b505050565b61062e3382610e60565b61063f8161063a610e7e565b610e9e565b61064b33836001610f0b565b5050565b61066a83838360405180602001604052806000815250610854565b505050565b60008061067b83611077565b9050600073ffffffffffffffffffffffffffffffffffffffff168173ffffffffffffffffffffffffffffffffffffffff16036106ec576040517f08c379a00000000000000000000000000000000000000000000000000000000081526004016106e390612256565b60405180910390fd5b80915050919050565b60008073ffffffffffffffffffffffffffffffffffffffff168273ffffffffffffffffffffffffffffffffffffffff1603610765576040517f08c379a000000000000000000000000000000000000000000000000000000000815260040161075c906122e8565b60405180910390fd5b600360008373ffffffffffffffffffffffffffffffffffffffff1673ffffffffffffffffffffffffffffffffffffffff168152602001908152602001600020549050919050565b6060600180546107bb90612023565b80601f01602080910402602001604051908101604052809291908181526020018280546107e790612023565b80156108345780601f1061080957610100808354040283529160200191610834565b820191906000526020600020905b81548152906001019060200180831161081757829003601f168201915b5050505050905090565b610850610849610a11565b8383610f0b565b5050565b61086561085f610a11565b83610ad2565b6108a4576040517f08c379a000000000000000000000000000000000000000000000000000000000815260040161089b906121ea565b60405180910390fd5b6108b0848484846110b4565b50505050565b60606108c182611110565b9050919050565b6000600560008473ffffffffffffffffffffffffffffffffffffffff1673ffffffffffffffffffffffffffffffffffffffff16815260200190815260200160002060008373ffffffffffffffffffffffffffffffffffffffff1673ffffffffffffffffffffffffffffffffffffffff16815260200190815260200160002060009054906101000a900460ff16905092915050565b60007f01ffc9a7000000000000000000000000000000000000000000000000000000007bffffffffffffffffffffffffffffffffffffffffffffffffffffffff1916827bffffffffffffffffffffffffffffffffffffffffffffffffffffffff1916149050919050565b6109cf81611222565b610a0e576040517f08c379a0000000000000000000000000000000000000000000000000000000008152600401610a0590612256565b60405180910390fd5b50565b600033905090565b816004600083815260200190815260200160002060006101000a81548173ffffffffffffffffffffffffffffffffffffffff021916908373ffffffffffffffffffffffffffffffffffffffff160217905550808273ffffffffffffffffffffffffffffffffffffffff16610a8c8361066f565b73ffffffffffffffffffffffffffffffffffffffff167f8c5be1e5ebec7d5bd14f71427d1e84f3dd0314c0f7b2291e5b200ac8c7c3b92560405160405180910390a45050565b600080610ade8361066f565b90508073ffffffffffffffffffffffffffffffffffffffff168473ffffffffffffffffffffffffffffffffffffffff161480610b205750610b1f81856108c8565b5b80610b5e57508373ffffffffffffffffffffffffffffffffffffffff16610b4684610467565b73ffffffffffffffffffffffffffffffffffffffff16145b91505092915050565b8273ffffffffffffffffffffffffffffffffffffffff16610b878261066f565b73ffffffffffffffffffffffffffffffffffffffff1614610bdd576040517f08c379a0000000000000000000000000000000000000000000000000000000008152600401610bd49061237a565b60405180910390fd5b600073ffffffffffffffffffffffffffffffffffffffff168273ffffffffffffffffffffffffffffffffffffffff1603610c4c576040517f08c379a0000000000000000000000000000000000000000000000000000000008152600401610c439061240c565b60405180910390fd5b610c598383836001611263565b8273ffffffffffffffffffffffffffffffffffffffff16610c798261066f565b73ffffffffffffffffffffffffffffffffffffffff1614610ccf576040517f08c379a0000000000000000000000000000000000000000000000000000000008152600401610cc69061237a565b60405180910390fd5b6004600082815260200190815260200160002060006101000a81549073ffffffffffffffffffffffffffffffffffffffff02191690556001600360008573ffffffffffffffffffffffffffffffffffffffff1673ffffffffffffffffffffffffffffffffffffffff168152602001908152602001600020600082825403925050819055506001600360008473ffffffffffffffffffffffffffffffffffffffff1673ffffffffffffffffffffffffffffffffffffffff16815260200190815260200160002060008282540192505081905550816002600083815260200190815260200160002060006101000a81548173ffffffffffffffffffffffffffffffffffffffff021916908373ffffffffffffffffffffffffffffffffffffffff160217905550808273ffffffffffffffffffffffffffffffffffffffff168473ffffffffffffffffffffffffffffffffffffffff167fddf252ad1be2c89b69c2b068fc378daa952ba7f163c4a11628f55a4df523b3ef60405160405180910390a4610e5b8383836001611389565b505050565b610e7a82826040518060200160405280600081525061138f565b5050565b6060604051806080016040528060518152602001612b1c60519139905090565b610ea782611222565b610ee6576040517f08c379a0000000000000000000000000000000000000000000000000000000008152600401610edd9061249e565b60405180910390fd5b80600660008481526020019081526020016000209081610f06919061266a565b505050565b8173ffffffffffffffffffffffffffffffffffffffff168373ffffffffffffffffffffffffffffffffffffffff1603610f79576040517f08c379a0000000000000000000000000000000000000000000000000000000008152600401610f7090612788565b60405180910390fd5b80600560008573ffffffffffffffffffffffffffffffffffffffff1673ffffffffffffffffffffffffffffffffffffffff16815260200190815260200160002060008473ffffffffffffffffffffffffffffffffffffffff1673ffffffffffffffffffffffffffffffffffffffff16815260200190815260200160002060006101000a81548160ff0219169083151502179055508173ffffffffffffffffffffffffffffffffffffffff168373ffffffffffffffffffffffffffffffffffffffff167f17307eab39ab6107e8899845ad3d59bd9653f200f220920489ca2b5937696c318360405161106a9190611aee565b60405180910390a3505050565b60006002600083815260200190815260200160002060009054906101000a900473ffffffffffffffffffffffffffffffffffffffff169050919050565b6110bf848484610b67565b6110cb848484846113ea565b61110a576040517f08c379a00000000000000000000000000000000000000000000000000000000081526004016111019061281a565b60405180910390fd5b50505050565b606061111b826109c6565b600060066000848152602001908152602001600020805461113b90612023565b80601f016020809104026020016040519081016040528092919081815260200182805461116790612023565b80156111b45780601f10611189576101008083540402835291602001916111b4565b820191906000526020600020905b81548152906001019060200180831161119757829003601f168201915b5050505050905060006111c5610e7e565b905060008151036111da57819250505061121d565b60008251111561120f5780826040516020016111f7929190612876565b6040516020818303038152906040529250505061121d565b61121884611571565b925050505b919050565b60008073ffffffffffffffffffffffffffffffffffffffff1661124483611077565b73ffffffffffffffffffffffffffffffffffffffff1614159050919050565b600181111561138357600073ffffffffffffffffffffffffffffffffffffffff168473ffffffffffffffffffffffffffffffffffffffff16146112f75780600360008673ffffffffffffffffffffffffffffffffffffffff1673ffffffffffffffffffffffffffffffffffffffff16815260200190815260200160002060008282546112ef91906128c9565b925050819055505b600073ffffffffffffffffffffffffffffffffffffffff168373ffffffffffffffffffffffffffffffffffffffff16146113825780600360008573ffffffffffffffffffffffffffffffffffffffff1673ffffffffffffffffffffffffffffffffffffffff168152602001908152602001600020600082825461137a91906128fd565b925050819055505b5b50505050565b50505050565b61139983836115d9565b6113a660008484846113ea565b6113e5576040517f08c379a00000000000000000000000000000000000000000000000000000000081526004016113dc9061281a565b60405180910390fd5b505050565b600061140b8473ffffffffffffffffffffffffffffffffffffffff166117f6565b15611564578373ffffffffffffffffffffffffffffffffffffffff1663150b7a02611434610a11565b8786866040518563ffffffff1660e01b81526004016114569493929190612986565b6020604051808303816000875af192505050801561149257506040513d601f19601f8201168201806040525081019061148f91906129e7565b60015b611514573d80600081146114c2576040519150601f19603f3d011682016040523d82523d6000602084013e6114c7565b606091505b50600081510361150c576040517f08c379a00000000000000000000000000000000000000000000000000000000081526004016115039061281a565b60405180910390fd5b805181602001fd5b63150b7a0260e01b7bffffffffffffffffffffffffffffffffffffffffffffffffffffffff1916817bffffffffffffffffffffffffffffffffffffffffffffffffffffffff191614915050611569565b600190505b949350505050565b606061157c826109c6565b6000611586610e7e565b905060008151116115a657604051806020016040528060008152506115d1565b806115b084611819565b6040516020016115c1929190612876565b6040516020818303038152906040525b915050919050565b600073ffffffffffffffffffffffffffffffffffffffff168273ffffffffffffffffffffffffffffffffffffffff1603611648576040517f08c379a000000000000000000000000000000000000000000000000000000000815260040161163f90612a60565b60405180910390fd5b61165181611222565b15611691576040517f08c379a000000000000000000000000000000000000000000000000000000000815260040161168890612acc565b60405180910390fd5b61169f600083836001611263565b6116a881611222565b156116e8576040517f08c379a00000000000000000000000000000000000000000000000000000000081526004016116df90612acc565b60405180910390fd5b6001600360008473ffffffffffffffffffffffffffffffffffffffff1673ffffffffffffffffffffffffffffffffffffffff16815260200190815260200160002060008282540192505081905550816002600083815260200190815260200160002060006101000a81548173ffffffffffffffffffffffffffffffffffffffff021916908373ffffffffffffffffffffffffffffffffffffffff160217905550808273ffffffffffffffffffffffffffffffffffffffff16600073ffffffffffffffffffffffffffffffffffffffff167fddf252ad1be2c89b69c2b068fc378daa952ba7f163c4a11628f55a4df523b3ef60405160405180910390a46117f2600083836001611389565b5050565b6000808273ffffffffffffffffffffffffffffffffffffffff163b119050919050565b606060006001611828846118e7565b01905060008167ffffffffffffffff81111561184757611846611e06565b5b6040519080825280601f01601f1916602001820160405280156118795781602001600182028036833780820191505090505b509050600082602001820190505b6001156118dc578080600190039150507f3031323334353637383961626364656600000000000000000000000000000000600a86061a8153600a85816118d0576118cf612aec565b5b04945060008503611887575b819350505050919050565b600080600090507a184f03e93ff9f4daa797ed6e38ed64bf6a1f0100000000000000008310611945577a184f03e93ff9f4daa797ed6e38ed64bf6a1f010000000000000000838161193b5761193a612aec565b5b0492506040810190505b6d04ee2d6d415b85acef81000000008310611982576d04ee2d6d415b85acef8100000000838161197857611977612aec565b5b0492506020810190505b662386f26fc1000083106119b157662386f26fc1000083816119a7576119a6612aec565b5b0492506010810190505b6305f5e10083106119da576305f5e10083816119d0576119cf612aec565b5b0492506008810190505b61271083106119ff5761271083816119f5576119f4612aec565b5b0492506004810190505b60648310611a225760648381611a1857611a17612aec565b5b0492506002810190505b600a8310611a31576001810190505b80915050919050565b6000604051905090565b600080fd5b600080fd5b60007fffffffff0000000000000000000000000000000000000000000000000000000082169050919050565b611a8381611a4e565b8114611a8e57600080fd5b50565b600081359050611aa081611a7a565b92915050565b600060208284031215611abc57611abb611a44565b5b6000611aca84828501611a91565b91505092915050565b60008115159050919050565b611ae881611ad3565b82525050565b6000602082019050611b036000830184611adf565b92915050565b600081519050919050565b600082825260208201905092915050565b60005b83811015611b43578082015181840152602081019050611b28565b60008484015250505050565b6000601f19601f8301169050919050565b6000611b6b82611b09565b611b758185611b14565b9350611b85818560208601611b25565b611b8e81611b4f565b840191505092915050565b60006020820190508181036000830152611bb38184611b60565b905092915050565b6000819050919050565b611bce81611bbb565b8114611bd957600080fd5b50565b600081359050611beb81611bc5565b92915050565b600060208284031215611c0757611c06611a44565b5b6000611c1584828501611bdc565b91505092915050565b600073ffffffffffffffffffffffffffffffffffffffff82169050919050565b6000611c4982611c1e565b9050919050565b611c5981611c3e565b82525050565b6000602082019050611c746000830184611c50565b92915050565b611c8381611c3e565b8114611c8e57600080fd5b50565b600081359050611ca081611c7a565b92915050565b60008060408385031215611cbd57611cbc611a44565b5b6000611ccb85828601611c91565b9250506020611cdc85828601611bdc565b9150509250929050565b600080600060608486031215611cff57611cfe611a44565b5b6000611d0d86828701611c91565b9350506020611d1e86828701611c91565b9250506040611d2f86828701611bdc565b9150509250925092565b600060208284031215611d4f57611d4e611a44565b5b6000611d5d84828501611c91565b91505092915050565b611d6f81611bbb565b82525050565b6000602082019050611d8a6000830184611d66565b92915050565b611d9981611ad3565b8114611da457600080fd5b50565b600081359050611db681611d90565b92915050565b60008060408385031215611dd357611dd2611a44565b5b6000611de185828601611c91565b9250506020611df285828601611da7565b9150509250929050565b600080fd5b600080fd5b7f4e487b7100000000000000000000000000000000000000000000000000000000600052604160045260246000fd5b611e3e82611b4f565b810181811067ffffffffffffffff82111715611e5d57611e5c611e06565b5b80604052505050565b6000611e70611a3a565b9050611e7c8282611e35565b919050565b600067ffffffffffffffff821115611e9c57611e9b611e06565b5b611ea582611b4f565b9050602081019050919050565b82818337600083830152505050565b6000611ed4611ecf84611e81565b611e66565b905082815260208101848484011115611ef057611eef611e01565b5b611efb848285611eb2565b509392505050565b600082601f830112611f1857611f17611dfc565b5b8135611f28848260208601611ec1565b91505092915050565b60008060008060808587031215611f4b57611f4a611a44565b5b6000611f5987828801611c91565b9450506020611f6a87828801611c91565b9350506040611f7b87828801611bdc565b925050606085013567ffffffffffffffff811115611f9c57611f9b611a49565b5b611fa887828801611f03565b91505092959194509250565b60008060408385031215611fcb57611fca611a44565b5b6000611fd985828601611c91565b9250506020611fea85828601611c91565b9150509250929050565b7f4e487b7100000000000000000000000000000000000000000000000000000000600052602260045260246000fd5b6000600282049050600182168061203b57607f821691505b60208210810361204e5761204d611ff4565b5b50919050565b7f4552433732313a20617070726f76616c20746f2063757272656e74206f776e6560008201527f7200000000000000000000000000000000000000000000000000000000000000602082015250565b60006120b0602183611b14565b91506120bb82612054565b604082019050919050565b600060208201905081810360008301526120df816120a3565b9050919050565b7f4552433732313a20617070726f76652063616c6c6572206973206e6f7420746f60008201527f6b656e206f776e6572206f7220617070726f76656420666f7220616c6c000000602082015250565b6000612142603d83611b14565b915061214d826120e6565b604082019050919050565b6000602082019050818103600083015261217181612135565b9050919050565b7f4552433732313a2063616c6c6572206973206e6f7420746f6b656e206f776e6560008201527f72206f7220617070726f76656400000000000000000000000000000000000000602082015250565b60006121d4602d83611b14565b91506121df82612178565b604082019050919050565b60006020820190508181036000830152612203816121c7565b9050919050565b7f4552433732313a20696e76616c696420746f6b656e2049440000000000000000600082015250565b6000612240601883611b14565b915061224b8261220a565b602082019050919050565b6000602082019050818103600083015261226f81612233565b9050919050565b7f4552433732313a2061646472657373207a65726f206973206e6f74206120766160008201527f6c6964206f776e65720000000000000000000000000000000000000000000000602082015250565b60006122d2602983611b14565b91506122dd82612276565b604082019050919050565b60006020820190508181036000830152612301816122c5565b9050919050565b7f4552433732313a207472616e736665722066726f6d20696e636f72726563742060008201527f6f776e6572000000000000000000000000000000000000000000000000000000602082015250565b6000612364602583611b14565b915061236f82612308565b604082019050919050565b6000602082019050818103600083015261239381612357565b9050919050565b7f4552433732313a207472616e7366657220746f20746865207a65726f2061646460008201527f7265737300000000000000000000000000000000000000000000000000000000602082015250565b60006123f6602483611b14565b91506124018261239a565b604082019050919050565b60006020820190508181036000830152612425816123e9565b9050919050565b7f45524337323155524953746f726167653a2055524920736574206f66206e6f6e60008201527f6578697374656e7420746f6b656e000000000000000000000000000000000000602082015250565b6000612488602e83611b14565b91506124938261242c565b604082019050919050565b600060208201905081810360008301526124b78161247b565b9050919050565b60008190508160005260206000209050919050565b60006020601f8301049050919050565b600082821b905092915050565b6000600883026125207fffffffffffffffffffffffffffffffffffffffffffffffffffffffffffffffff826124e3565b61252a86836124e3565b95508019841693508086168417925050509392505050565b6000819050919050565b600061256761256261255d84611bbb565b612542565b611bbb565b9050919050565b6000819050919050565b6125818361254c565b61259561258d8261256e565b8484546124f0565b825550505050565b600090565b6125aa61259d565b6125b5818484612578565b505050565b5b818110156125d9576125ce6000826125a2565b6001810190506125bb565b5050565b601f82111561261e576125ef816124be565b6125f8846124d3565b81016020851015612607578190505b61261b612613856124d3565b8301826125ba565b50505b505050565b600082821c905092915050565b600061264160001984600802612623565b1980831691505092915050565b600061265a8383612630565b9150826002028217905092915050565b61267382611b09565b67ffffffffffffffff81111561268c5761268b611e06565b5b6126968254612023565b6126a18282856125dd565b600060209050601f8311600181146126d457600084156126c2578287015190505b6126cc858261264e565b865550612734565b601f1984166126e2866124be565b60005b8281101561270a578489015182556001820191506020850194506020810190506126e5565b868310156127275784890151612723601f891682612630565b8355505b6001600288020188555050505b505050505050565b7f4552433732313a20617070726f766520746f2063616c6c657200000000000000600082015250565b6000612772601983611b14565b915061277d8261273c565b602082019050919050565b600060208201905081810360008301526127a181612765565b9050919050565b7f4552433732313a207472616e7366657220746f206e6f6e20455243373231526560008201527f63656976657220696d706c656d656e7465720000000000000000000000000000602082015250565b6000612804603283611b14565b915061280f826127a8565b604082019050919050565b60006020820190508181036000830152612833816127f7565b9050919050565b600081905092915050565b600061285082611b09565b61285a818561283a565b935061286a818560208601611b25565b80840191505092915050565b60006128828285612845565b915061288e8284612845565b91508190509392505050565b7f4e487b7100000000000000000000000000000000000000000000000000000000600052601160045260246000fd5b60006128d482611bbb565b91506128df83611bbb565b92508282039050818111156128f7576128f661289a565b5b92915050565b600061290882611bbb565b915061291383611bbb565b925082820190508082111561292b5761292a61289a565b5b92915050565b600081519050919050565b600082825260208201905092915050565b600061295882612931565b612962818561293c565b9350612972818560208601611b25565b61297b81611b4f565b840191505092915050565b600060808201905061299b6000830187611c50565b6129a86020830186611c50565b6129b56040830185611d66565b81810360608301526129c7818461294d565b905095945050505050565b6000815190506129e181611a7a565b92915050565b6000602082840312156129fd576129fc611a44565b5b6000612a0b848285016129d2565b91505092915050565b7f4552433732313a206d696e7420746f20746865207a65726f2061646472657373600082015250565b6000612a4a602083611b14565b9150612a5582612a14565b602082019050919050565b60006020820190508181036000830152612a7981612a3d565b9050919050565b7f4552433732313a20746f6b656e20616c7265616479206d696e74656400000000600082015250565b6000612ab6601c83611b14565b9150612ac182612a80565b602082019050919050565b60006020820190508181036000830152612ae581612aa9565b9050919050565b7f4e487b7100000000000000000000000000000000000000000000000000000000600052601260045260246000fdfe68747470733a2f2f676174657761792e70696e6174612e636c6f75642f697066732f516d556446626e7533476942364250676f6f43646577795a347434464247746173527076775a637879536d324a652fa2646970667358221220591340e19d934396fe138cbff9e58103bf393187eb75afe19692fcdd0805242164736f6c63430008110033",
  "immutableReferences": {},
  "source": "// SPDX-License-Identifier: MIT\r\npragma solidity ^0.8.0;\r\n\r\nimport \"@openzeppelin/contracts/token/ERC721/ERC721.sol\";\r\nimport \"@openzeppelin/contracts/token/ERC721/extensions/ERC721URIStorage.sol\";\r\nimport \"@openzeppelin/contracts/utils/Strings.sol\";\r\n\r\ncontract HoBINFT is ERC721, ERC721URIStorage {\r\n    using Strings for uint256;\r\n    constructor() ERC721(\"HoBiNFT\", \"HBT\") {}\r\n\r\n    // string public baseUri = \"https://gateway.pinata.cloud/ipfs/QmUdFbnu3GiB6BPgooCdewyZ4t4FBGtasRpvwZcxySm2Je/\";\r\n    function _baseURI() internal pure override returns (string memory) {\r\n        return \"https://gateway.pinata.cloud/ipfs/QmUdFbnu3GiB6BPgooCdewyZ4t4FBGtasRpvwZcxySm2Je/\";\r\n    }\r\n\r\n    function mintNFT(address nftMarketplace, uint256 tokenId) public {\r\n        _safeMint(msg.sender, tokenId);\r\n        _setTokenURI(tokenId, _baseURI());\r\n        _setApprovalForAll(msg.sender, nftMarketplace, true);\r\n    }\r\n\r\n    function tokenURI(uint256 tokenId) public view override(ERC721, ERC721URIStorage) returns (string memory) {\r\n        return super.tokenURI(tokenId);\r\n    }\r\n\r\n    function _burn(uint256 tokenId) internal override(ERC721, ERC721URIStorage) {\r\n        super._burn(tokenId);\r\n    }\r\n}",
  "sourcePath": "D:\\Information Technology\\Blockchain Coding\\Solidity\\NFT_Marketplace\\contracts\\HoBiNFT.sol",
  "compiler": {
    "name": "solc",
    "version": "0.8.17+commit.8df45f5f.Emscripten.clang"
  },
  "schemaVersion": "3.4.10",
  "updatedAt": "2022-11-10T09:45:40.248Z",
  "networkType": "ethereum",
  "devdoc": {
    "kind": "dev",
    "methods": {
      "approve(address,uint256)": {
        "details": "See {IERC721-approve}."
      },
      "balanceOf(address)": {
        "details": "See {IERC721-balanceOf}."
      },
      "getApproved(uint256)": {
        "details": "See {IERC721-getApproved}."
      },
      "isApprovedForAll(address,address)": {
        "details": "See {IERC721-isApprovedForAll}."
      },
      "name()": {
        "details": "See {IERC721Metadata-name}."
      },
      "ownerOf(uint256)": {
        "details": "See {IERC721-ownerOf}."
      },
      "safeTransferFrom(address,address,uint256)": {
        "details": "See {IERC721-safeTransferFrom}."
      },
      "safeTransferFrom(address,address,uint256,bytes)": {
        "details": "See {IERC721-safeTransferFrom}."
      },
      "setApprovalForAll(address,bool)": {
        "details": "See {IERC721-setApprovalForAll}."
      },
      "supportsInterface(bytes4)": {
        "details": "See {IERC165-supportsInterface}."
      },
      "symbol()": {
        "details": "See {IERC721Metadata-symbol}."
      },
      "transferFrom(address,address,uint256)": {
        "details": "See {IERC721-transferFrom}."
      }
    },
    "version": 1
  },
  "userdoc": {
    "kind": "user",
    "methods": {},
    "version": 1
  }
}