{
  "contractName": "NFTMarketplace",
  "abi": [
    {
      "inputs": [
        {
          "internalType": "address",
          "name": "_USDTContract",
          "type": "address"
        }
      ],
      "stateMutability": "nonpayable",
      "type": "constructor"
    },
    {
      "anonymous": false,
      "inputs": [
        {
          "indexed": true,
          "internalType": "address",
          "name": "previousOwner",
          "type": "address"
        },
        {
          "indexed": true,
          "internalType": "address",
          "name": "newOwner",
          "type": "address"
        }
      ],
      "name": "OwnershipTransferred",
      "type": "event"
    },
    {
      "inputs": [
        {
          "internalType": "uint256",
          "name": "",
          "type": "uint256"
        }
      ],
      "name": "offers",
      "outputs": [
        {
          "internalType": "address",
          "name": "nftContract",
          "type": "address"
        },
        {
          "internalType": "uint256",
          "name": "tokenId",
          "type": "uint256"
        },
        {
          "internalType": "uint256",
          "name": "offeredPrice",
          "type": "uint256"
        },
        {
          "internalType": "address",
          "name": "buyer",
          "type": "address"
        }
      ],
      "stateMutability": "view",
      "type": "function",
      "constant": true
    },
    {
      "inputs": [],
      "name": "owner",
      "outputs": [
        {
          "internalType": "address",
          "name": "",
          "type": "address"
        }
      ],
      "stateMutability": "view",
      "type": "function",
      "constant": true
    },
    {
      "inputs": [],
      "name": "renounceOwnership",
      "outputs": [],
      "stateMutability": "nonpayable",
      "type": "function"
    },
    {
      "inputs": [
        {
          "internalType": "address",
          "name": "newOwner",
          "type": "address"
        }
      ],
      "name": "transferOwnership",
      "outputs": [],
      "stateMutability": "nonpayable",
      "type": "function"
    },
    {
      "inputs": [
        {
          "internalType": "address",
          "name": "nftContract",
          "type": "address"
        },
        {
          "internalType": "uint256",
          "name": "tokenId",
          "type": "uint256"
        },
        {
          "internalType": "uint256",
          "name": "price",
          "type": "uint256"
        }
      ],
      "name": "listingNFT",
      "outputs": [],
      "stateMutability": "payable",
      "type": "function",
      "payable": true
    },
    {
      "inputs": [
        {
          "internalType": "address",
          "name": "nftContract",
          "type": "address"
        },
        {
          "internalType": "uint256",
          "name": "tokenId",
          "type": "uint256"
        }
      ],
      "name": "delistingNFTForce",
      "outputs": [],
      "stateMutability": "nonpayable",
      "type": "function"
    },
    {
      "inputs": [
        {
          "internalType": "address",
          "name": "nftContract",
          "type": "address"
        },
        {
          "internalType": "uint256",
          "name": "tokenId",
          "type": "uint256"
        }
      ],
      "name": "delistingNFT",
      "outputs": [],
      "stateMutability": "nonpayable",
      "type": "function"
    },
    {
      "inputs": [
        {
          "internalType": "address",
          "name": "nftContract",
          "type": "address"
        },
        {
          "internalType": "uint256",
          "name": "tokenId",
          "type": "uint256"
        },
        {
          "internalType": "uint256",
          "name": "offeredPrice",
          "type": "uint256"
        }
      ],
      "name": "offeringNFT",
      "outputs": [],
      "stateMutability": "nonpayable",
      "type": "function"
    },
    {
      "inputs": [
        {
          "internalType": "address",
          "name": "nftContract",
          "type": "address"
        },
        {
          "internalType": "uint256",
          "name": "tokenId",
          "type": "uint256"
        }
      ],
      "name": "SellingNFT",
      "outputs": [],
      "stateMutability": "nonpayable",
      "type": "function"
    },
    {
      "inputs": [],
      "name": "getAmountNFTOnMarket",
      "outputs": [
        {
          "internalType": "uint256",
          "name": "",
          "type": "uint256"
        }
      ],
      "stateMutability": "view",
      "type": "function",
      "constant": true
    },
    {
      "inputs": [
        {
          "internalType": "uint256",
          "name": "tokenId",
          "type": "uint256"
        }
      ],
      "name": "getItemIdFromTokenId",
      "outputs": [
        {
          "internalType": "uint256",
          "name": "",
          "type": "uint256"
        }
      ],
      "stateMutability": "view",
      "type": "function",
      "constant": true
    },
    {
      "inputs": [],
      "name": "getListOfferNFT",
      "outputs": [
        {
          "components": [
            {
              "internalType": "address",
              "name": "nftContract",
              "type": "address"
            },
            {
              "internalType": "uint256",
              "name": "tokenId",
              "type": "uint256"
            },
            {
              "internalType": "uint256",
              "name": "offeredPrice",
              "type": "uint256"
            },
            {
              "internalType": "address",
              "name": "buyer",
              "type": "address"
            }
          ],
          "internalType": "struct NFTMarketplace.NFTtoSold[]",
          "name": "",
          "type": "tuple[]"
        }
      ],
      "stateMutability": "view",
      "type": "function",
      "constant": true
    }
  ],
  "bytecode": "0x60806040523480156200001157600080fd5b5060405162001c8738038062001c87833981810160405281019062000037919062000216565b620000576200004b620000e060201b60201c565b620000e860201b60201c565b33600160006101000a81548173ffffffffffffffffffffffffffffffffffffffff021916908373ffffffffffffffffffffffffffffffffffffffff16021790555080600260006101000a81548173ffffffffffffffffffffffffffffffffffffffff021916908373ffffffffffffffffffffffffffffffffffffffff1602179055505062000248565b600033905090565b60008060009054906101000a900473ffffffffffffffffffffffffffffffffffffffff169050816000806101000a81548173ffffffffffffffffffffffffffffffffffffffff021916908373ffffffffffffffffffffffffffffffffffffffff1602179055508173ffffffffffffffffffffffffffffffffffffffff168173ffffffffffffffffffffffffffffffffffffffff167f8be0079c531659141344cd1fd0a4f28419497f9722a3daafe3b4186f6b6457e060405160405180910390a35050565b600080fd5b600073ffffffffffffffffffffffffffffffffffffffff82169050919050565b6000620001de82620001b1565b9050919050565b620001f081620001d1565b8114620001fc57600080fd5b50565b6000815190506200021081620001e5565b92915050565b6000602082840312156200022f576200022e620001ac565b5b60006200023f84828501620001ff565b91505092915050565b611a2f80620002586000396000f3fe6080604052600436106100a75760003560e01c8063715018a611610064578063715018a6146101995780638a72ea6a146101b05780638da5cb5b146101f0578063b3227ce51461021b578063e9e4743a14610244578063f2fde38b14610281576100a7565b80630efbceab146100ac5780632ea1a03f146100d7578063333e0811146100f35780633b9e0ceb1461011e578063459dda4a146101475780636e5596a014610170575b600080fd5b3480156100b857600080fd5b506100c16102aa565b6040516100ce91906111da565b60405180910390f35b6100f160048036038101906100ec9190611284565b6102b4565b005b3480156100ff57600080fd5b50610108610517565b60405161011591906113f9565b60405180910390f35b34801561012a57600080fd5b506101456004803603810190610140919061141b565b610636565b005b34801561015357600080fd5b5061016e6004803603810190610169919061141b565b61074e565b005b34801561017c57600080fd5b506101976004803603810190610192919061141b565b610a7d565b005b3480156101a557600080fd5b506101ae610c2e565b005b3480156101bc57600080fd5b506101d760048036038101906101d2919061145b565b610c42565b6040516101e79493929190611497565b60405180910390f35b3480156101fc57600080fd5b50610205610cc2565b60405161021291906114dc565b60405180910390f35b34801561022757600080fd5b50610242600480360381019061023d9190611284565b610ceb565b005b34801561025057600080fd5b5061026b6004803603810190610266919061145b565b610ef8565b60405161027891906111da565b60405180910390f35b34801561028d57600080fd5b506102a860048036038101906102a391906114f7565b610f15565b005b6000600754905090565b600081116102f7576040517f08c379a00000000000000000000000000000000000000000000000000000000081526004016102ee90611581565b60405180910390fd5b600660405180608001604052808573ffffffffffffffffffffffffffffffffffffffff16815260200184815260200183815260200160001515815250908060018154018082558091505060019003906000526020600020906004020160009091909190915060008201518160000160006101000a81548173ffffffffffffffffffffffffffffffffffffffff021916908373ffffffffffffffffffffffffffffffffffffffff160217905550602082015181600101556040820151816002015560608201518160030160006101000a81548160ff02191690831515021790555050508273ffffffffffffffffffffffffffffffffffffffff166323b872dd3330856040518463ffffffff1660e01b8152600401610416939291906115a1565b600060405180830381600087803b15801561043057600080fd5b505af1158015610444573d6000803e3d6000fd5b5050505081600360003373ffffffffffffffffffffffffffffffffffffffff1673ffffffffffffffffffffffffffffffffffffffff16815260200190815260200160002081905550336004600084815260200190815260200160002060006101000a81548173ffffffffffffffffffffffffffffffffffffffff021916908373ffffffffffffffffffffffffffffffffffffffff160217905550600754600560008481526020019081526020016000208190555060016007600082825461050b9190611607565b92505081905550505050565b60606008805480602002602001604051908101604052809291908181526020016000905b8282101561062d57838290600052602060002090600402016040518060800160405290816000820160009054906101000a900473ffffffffffffffffffffffffffffffffffffffff1673ffffffffffffffffffffffffffffffffffffffff1673ffffffffffffffffffffffffffffffffffffffff16815260200160018201548152602001600282015481526020016003820160009054906101000a900473ffffffffffffffffffffffffffffffffffffffff1673ffffffffffffffffffffffffffffffffffffffff1673ffffffffffffffffffffffffffffffffffffffff16815250508152602001906001019061053b565b50505050905090565b61063e610f98565b8173ffffffffffffffffffffffffffffffffffffffff166323b872dd3033846040518463ffffffff1660e01b815260040161067b939291906115a1565b600060405180830381600087803b15801561069557600080fd5b505af11580156106a9573d6000803e3d6000fd5b5050505060066005600083815260200190815260200160002054815481106106d4576106d361163b565b5b9060005260206000209060040201600080820160006101000a81549073ffffffffffffffffffffffffffffffffffffffff0219169055600182016000905560028201600090556003820160006101000a81549060ff02191690555050600160076000828254610743919061166a565b925050819055505050565b3373ffffffffffffffffffffffffffffffffffffffff166004600083815260200190815260200160002060009054906101000a900473ffffffffffffffffffffffffffffffffffffffff1673ffffffffffffffffffffffffffffffffffffffff16146107ef576040517f08c379a00000000000000000000000000000000000000000000000000000000081526004016107e6906116ea565b60405180910390fd5b60005b600880549050811015610a5e5781600882815481106108145761081361163b565b5b90600052602060002090600402016001015414801561085f575061083782611016565b6008828154811061084b5761084a61163b565b5b906000526020600020906004020160020154145b15610a4b578273ffffffffffffffffffffffffffffffffffffffff166323b872dd30600884815481106108955761089461163b565b5b906000526020600020906004020160030160009054906101000a900473ffffffffffffffffffffffffffffffffffffffff16600885815481106108db576108da61163b565b5b9060005260206000209060040201600101546040518463ffffffff1660e01b815260040161090b939291906115a1565b600060405180830381600087803b15801561092557600080fd5b505af1158015610939573d6000803e3d6000fd5b50505050600260009054906101000a900473ffffffffffffffffffffffffffffffffffffffff1673ffffffffffffffffffffffffffffffffffffffff166323b872dd6008838154811061098f5761098e61163b565b5b906000526020600020906004020160030160009054906101000a900473ffffffffffffffffffffffffffffffffffffffff1633600885815481106109d6576109d561163b565b5b9060005260206000209060040201600201546040518463ffffffff1660e01b8152600401610a06939291906115a1565b6020604051808303816000875af1158015610a25573d6000803e3d6000fd5b505050506040513d601f19601f82011682018060405250810190610a499190611742565b505b8080610a569061176f565b9150506107f2565b50600160076000828254610a72919061166a565b925050819055505050565b3373ffffffffffffffffffffffffffffffffffffffff166004600083815260200190815260200160002060009054906101000a900473ffffffffffffffffffffffffffffffffffffffff1673ffffffffffffffffffffffffffffffffffffffff1614610b1e576040517f08c379a0000000000000000000000000000000000000000000000000000000008152600401610b1590611803565b60405180910390fd5b8173ffffffffffffffffffffffffffffffffffffffff166323b872dd3033846040518463ffffffff1660e01b8152600401610b5b939291906115a1565b600060405180830381600087803b158015610b7557600080fd5b505af1158015610b89573d6000803e3d6000fd5b505050506006600560008381526020019081526020016000205481548110610bb457610bb361163b565b5b9060005260206000209060040201600080820160006101000a81549073ffffffffffffffffffffffffffffffffffffffff0219169055600182016000905560028201600090556003820160006101000a81549060ff02191690555050600160076000828254610c23919061166a565b925050819055505050565b610c36610f98565b610c4060006110f5565b565b60088181548110610c5257600080fd5b90600052602060002090600402016000915090508060000160009054906101000a900473ffffffffffffffffffffffffffffffffffffffff16908060010154908060020154908060030160009054906101000a900473ffffffffffffffffffffffffffffffffffffffff16905084565b60008060009054906101000a900473ffffffffffffffffffffffffffffffffffffffff16905090565b60006006600560008581526020019081526020016000205481548110610d1457610d1361163b565b5b9060005260206000209060040201905060003373ffffffffffffffffffffffffffffffffffffffff163111610d7e576040517f08c379a0000000000000000000000000000000000000000000000000000000008152600401610d759061186f565b60405180910390fd5b600015158160030160009054906101000a900460ff16151514610dd6576040517f08c379a0000000000000000000000000000000000000000000000000000000008152600401610dcd906118db565b60405180910390fd5b600860405180608001604052808673ffffffffffffffffffffffffffffffffffffffff1681526020018581526020018481526020013373ffffffffffffffffffffffffffffffffffffffff16815250908060018154018082558091505060019003906000526020600020906004020160009091909190915060008201518160000160006101000a81548173ffffffffffffffffffffffffffffffffffffffff021916908373ffffffffffffffffffffffffffffffffffffffff160217905550602082015181600101556040820151816002015560608201518160030160006101000a81548173ffffffffffffffffffffffffffffffffffffffff021916908373ffffffffffffffffffffffffffffffffffffffff160217905550505050505050565b600060056000838152602001908152602001600020549050919050565b610f1d610f98565b600073ffffffffffffffffffffffffffffffffffffffff168173ffffffffffffffffffffffffffffffffffffffff1603610f8c576040517f08c379a0000000000000000000000000000000000000000000000000000000008152600401610f839061196d565b60405180910390fd5b610f95816110f5565b50565b610fa06111b9565b73ffffffffffffffffffffffffffffffffffffffff16610fbe610cc2565b73ffffffffffffffffffffffffffffffffffffffff1614611014576040517f08c379a000000000000000000000000000000000000000000000000000000000815260040161100b906119d9565b60405180910390fd5b565b600080600860008154811061102e5761102d61163b565b5b906000526020600020906004020160020154905060005b6008805490508110156110eb5783600882815481106110675761106661163b565b5b9060005260206000209060040201600101541480156110aa575081600882815481106110965761109561163b565b5b906000526020600020906004020160020154115b156110d857600881815481106110c3576110c261163b565b5b90600052602060002090600402016002015491505b80806110e39061176f565b915050611045565b5080915050919050565b60008060009054906101000a900473ffffffffffffffffffffffffffffffffffffffff169050816000806101000a81548173ffffffffffffffffffffffffffffffffffffffff021916908373ffffffffffffffffffffffffffffffffffffffff1602179055508173ffffffffffffffffffffffffffffffffffffffff168173ffffffffffffffffffffffffffffffffffffffff167f8be0079c531659141344cd1fd0a4f28419497f9722a3daafe3b4186f6b6457e060405160405180910390a35050565b600033905090565b6000819050919050565b6111d4816111c1565b82525050565b60006020820190506111ef60008301846111cb565b92915050565b600080fd5b600073ffffffffffffffffffffffffffffffffffffffff82169050919050565b6000611225826111fa565b9050919050565b6112358161121a565b811461124057600080fd5b50565b6000813590506112528161122c565b92915050565b611261816111c1565b811461126c57600080fd5b50565b60008135905061127e81611258565b92915050565b60008060006060848603121561129d5761129c6111f5565b5b60006112ab86828701611243565b93505060206112bc8682870161126f565b92505060406112cd8682870161126f565b9150509250925092565b600081519050919050565b600082825260208201905092915050565b6000819050602082019050919050565b61130c8161121a565b82525050565b61131b816111c1565b82525050565b6080820160008201516113376000850182611303565b50602082015161134a6020850182611312565b50604082015161135d6040850182611312565b5060608201516113706060850182611303565b50505050565b60006113828383611321565b60808301905092915050565b6000602082019050919050565b60006113a6826112d7565b6113b081856112e2565b93506113bb836112f3565b8060005b838110156113ec5781516113d38882611376565b97506113de8361138e565b9250506001810190506113bf565b5085935050505092915050565b60006020820190508181036000830152611413818461139b565b905092915050565b60008060408385031215611432576114316111f5565b5b600061144085828601611243565b92505060206114518582860161126f565b9150509250929050565b600060208284031215611471576114706111f5565b5b600061147f8482850161126f565b91505092915050565b6114918161121a565b82525050565b60006080820190506114ac6000830187611488565b6114b960208301866111cb565b6114c660408301856111cb565b6114d36060830184611488565b95945050505050565b60006020820190506114f16000830184611488565b92915050565b60006020828403121561150d5761150c6111f5565b5b600061151b84828501611243565b91505092915050565b600082825260208201905092915050565b7f707269636520696e76616c696400000000000000000000000000000000000000600082015250565b600061156b600d83611524565b915061157682611535565b602082019050919050565b6000602082019050818103600083015261159a8161155e565b9050919050565b60006060820190506115b66000830186611488565b6115c36020830185611488565b6115d060408301846111cb565b949350505050565b7f4e487b7100000000000000000000000000000000000000000000000000000000600052601160045260246000fd5b6000611612826111c1565b915061161d836111c1565b9250828201905080821115611635576116346115d8565b5b92915050565b7f4e487b7100000000000000000000000000000000000000000000000000000000600052603260045260246000fd5b6000611675826111c1565b9150611680836111c1565b9250828203905081811115611698576116976115d8565b5b92915050565b7f6e6f7420616c6c6f77616e636500000000000000000000000000000000000000600082015250565b60006116d4600d83611524565b91506116df8261169e565b602082019050919050565b60006020820190508181036000830152611703816116c7565b9050919050565b60008115159050919050565b61171f8161170a565b811461172a57600080fd5b50565b60008151905061173c81611716565b92915050565b600060208284031215611758576117576111f5565b5b60006117668482850161172d565b91505092915050565b600061177a826111c1565b91507fffffffffffffffffffffffffffffffffffffffffffffffffffffffffffffffff82036117ac576117ab6115d8565b5b600182019050919050565b7f596f75277265206e6f74206f776e6572206f662074686973204e465400000000600082015250565b60006117ed601c83611524565b91506117f8826117b7565b602082019050919050565b6000602082019050818103600083015261181c816117e0565b9050919050565b7f6e6f7420656e6f756768206d6f6e657900000000000000000000000000000000600082015250565b6000611859601083611524565b915061186482611823565b602082019050919050565b600060208201905081810360008301526118888161184c565b9050919050565b7f4e467420697320736f6c64000000000000000000000000000000000000000000600082015250565b60006118c5600b83611524565b91506118d08261188f565b602082019050919050565b600060208201905081810360008301526118f4816118b8565b9050919050565b7f4f776e61626c653a206e6577206f776e657220697320746865207a65726f206160008201527f6464726573730000000000000000000000000000000000000000000000000000602082015250565b6000611957602683611524565b9150611962826118fb565b604082019050919050565b600060208201905081810360008301526119868161194a565b9050919050565b7f4f776e61626c653a2063616c6c6572206973206e6f7420746865206f776e6572600082015250565b60006119c3602083611524565b91506119ce8261198d565b602082019050919050565b600060208201905081810360008301526119f2816119b6565b905091905056fea26469706673582212201eab2e6e3fc83abea8a462e5a1108eb7ed30da5b1e9a3c8bf85586bc735ac63964736f6c63430008110033",
  "immutableReferences": {},
  "source": "// SPDX-License-Identifier: MIT\r\npragma solidity ^0.8.0; \r\n\r\nimport \"@openzeppelin/contracts/token/ERC721/IERC721.sol\";\r\nimport \"@openzeppelin/contracts/access/Ownable.sol\";\r\n\r\nimport \"@openzeppelin/contracts/token/ERC20/ERC20.sol\";\r\n\r\n\r\ncontract NFTMarketplace is Ownable {\r\n\r\n    address private ownerMarketplace;\r\n    address private USDTContract;\r\n\r\n    constructor(\r\n        address _USDTContract\r\n    ) {\r\n        ownerMarketplace = msg.sender;\r\n        USDTContract = _USDTContract;\r\n    }\r\n\r\n    mapping (address => uint256) private ownerToTokenId;\r\n    mapping (uint256 => address) private TokenIdtoOwner;\r\n    mapping (uint256 => uint256) private tokenIdToItemId;\r\n\r\n\r\n    // Structure NFT item\r\n    struct NFT_ITEM {\r\n        address nftContract;\r\n        uint256 tokenId;\r\n        uint256 price;\r\n        bool sold;\r\n    }\r\n\r\n    NFT_ITEM[] private items;\r\n    uint256 private itemId;\r\n\r\n    // Listing NFT \r\n    function listingNFT(\r\n        address nftContract,\r\n        uint256 tokenId,\r\n        uint256 price\r\n    ) payable public {\r\n        require(price > 0, \"price invalid\");\r\n\r\n        items.push(\r\n            NFT_ITEM(nftContract, tokenId, price, false)\r\n        );\r\n\r\n        IERC721(nftContract).transferFrom(msg.sender, address(this), tokenId);\r\n\r\n        ownerToTokenId[msg.sender] = tokenId; \r\n        TokenIdtoOwner[tokenId] = msg.sender;\r\n        tokenIdToItemId[tokenId] = itemId;\r\n        itemId += 1;\r\n    } \r\n\r\n    // Delisting NFT\r\n    function delistingNFTForce(\r\n        address nftContract,\r\n        uint256 tokenId\r\n    ) public onlyOwner {\r\n\r\n        IERC721(nftContract).transferFrom(address(this), msg.sender, tokenId);\r\n\r\n        delete items[tokenIdToItemId[tokenId]];\r\n        itemId -= 1;\r\n    }\r\n\r\n    function delistingNFT(\r\n        address nftContract,\r\n        uint256 tokenId\r\n    ) public {\r\n        require(TokenIdtoOwner[tokenId] == msg.sender, \"You're not owner of this NFT\");\r\n\r\n        IERC721(nftContract).transferFrom(address(this), msg.sender, tokenId);\r\n\r\n        delete items[tokenIdToItemId[tokenId]];\r\n        itemId -= 1;\r\n    }\r\n\r\n    // Buying NFT\r\n    struct NFTtoSold {\r\n        address nftContract;\r\n        uint256 tokenId;\r\n        uint256 offeredPrice;\r\n        address buyer;\r\n    }\r\n\r\n    NFTtoSold[] public offers;\r\n    address private buyer;\r\n\r\n    function offeringNFT(\r\n        address nftContract,\r\n        uint256 tokenId,\r\n        uint256 offeredPrice\r\n    ) public {\r\n        NFT_ITEM storage itemExam = items[tokenIdToItemId[tokenId]]; \r\n\r\n        require(msg.sender.balance > 0, \"not enough money\");\r\n        require(itemExam.sold == false, \"NFt is sold\");\r\n\r\n        offers.push(\r\n            NFTtoSold(nftContract, tokenId, offeredPrice, msg.sender)\r\n        );\r\n    }\r\n    \r\n    function SellingNFT(\r\n        address nftContract,\r\n        uint256 tokenId\r\n    ) public {\r\n        require(TokenIdtoOwner[tokenId] == msg.sender, \"not allowance\");\r\n        for (uint256 i = 0; i < offers.length; i++) {\r\n            if (offers[i].tokenId == tokenId && offers[i].offeredPrice == getMaximumPriceNFT(tokenId)) {\r\n                IERC721(nftContract).transferFrom(\r\n                    address(this),\r\n                    offers[i].buyer,\r\n                    offers[i].tokenId\r\n                );\r\n\r\n                ERC20(USDTContract).transferFrom(\r\n                    offers[i].buyer, \r\n                    msg.sender, \r\n                    offers[i].offeredPrice\r\n                );\r\n\r\n            }\r\n        }\r\n        itemId -= 1;\r\n    }\r\n\r\n    function getMaximumPriceNFT(uint256 tokenId) internal view returns (uint256) {\r\n        uint256 maxOfferedPrice = offers[0].offeredPrice;\r\n\r\n        for (uint256 i = 0; i < offers.length; i++) {\r\n            if (offers[i].tokenId == tokenId && offers[i].offeredPrice > maxOfferedPrice) {\r\n                maxOfferedPrice = offers[i].offeredPrice;\r\n            }\r\n        }\r\n\r\n        return maxOfferedPrice;\r\n    }\r\n\r\n    // Getting\r\n    function getAmountNFTOnMarket() public view returns (uint256) {\r\n        return itemId;\r\n    }\r\n\r\n    function getItemIdFromTokenId(uint256 tokenId) public view returns (uint256) {\r\n        return tokenIdToItemId[tokenId];\r\n    }  \r\n\r\n    function getListOfferNFT() public view returns (NFTtoSold[] memory) {\r\n        return offers;\r\n    }\r\n}",
  "sourcePath": "D:\\Information Technology\\Blockchain Coding\\Solidity\\NFT_Marketplace\\contracts\\NFT_Marketplace.sol",
  "compiler": {
    "name": "solc",
    "version": "0.8.17+commit.8df45f5f.Emscripten.clang"
  },
  "schemaVersion": "3.4.10",
  "updatedAt": "2022-11-10T09:45:25.500Z",
  "networkType": "ethereum",
  "devdoc": {
    "kind": "dev",
    "methods": {
      "owner()": {
        "details": "Returns the address of the current owner."
      },
      "renounceOwnership()": {
        "details": "Leaves the contract without owner. It will not be possible to call `onlyOwner` functions anymore. Can only be called by the current owner. NOTE: Renouncing ownership will leave the contract without an owner, thereby removing any functionality that is only available to the owner."
      },
      "transferOwnership(address)": {
        "details": "Transfers ownership of the contract to a new account (`newOwner`). Can only be called by the current owner."
      }
    },
    "version": 1
  },
  "userdoc": {
    "kind": "user",
    "methods": {},
    "version": 1
  }
}